{
    "contractName": "Document",
    "abi": [
        {
            "inputs": [
                {
                    "internalType": "uint256",
                    "name": "signatures",
                    "type": "uint256"
                }
            ],
            "stateMutability": "nonpayable",
            "type": "constructor"
        },
        {
            "inputs": [],
            "name": "endApproval",
            "outputs": [
                {
                    "internalType": "bool",
                    "name": "",
                    "type": "bool"
                }
            ],
            "stateMutability": "nonpayable",
            "type": "function"
        },
        {
            "inputs": [],
            "name": "getNumOfAbstained",
            "outputs": [
                {
                    "internalType": "uint256",
                    "name": "",
                    "type": "uint256"
                }
            ],
            "stateMutability": "view",
            "type": "function"
        },
        {
            "inputs": [],
            "name": "getNumOfOpposed",
            "outputs": [
                {
                    "internalType": "uint256",
                    "name": "",
                    "type": "uint256"
                }
            ],
            "stateMutability": "view",
            "type": "function"
        },
        {
            "inputs": [],
            "name": "getNumOfSignatures",
            "outputs": [
                {
                    "internalType": "uint256",
                    "name": "",
                    "type": "uint256"
                }
            ],
            "stateMutability": "view",
            "type": "function"
        },
        {
            "inputs": [],
            "name": "getSign",
            "outputs": [
                {
                    "internalType": "bool",
                    "name": "sign",
                    "type": "bool"
                }
            ],
            "stateMutability": "view",
            "type": "function"
        },
        {
            "inputs": [],
            "name": "getStatus",
            "outputs": [
                {
                    "internalType": "enum Document.Status",
                    "name": "",
                    "type": "uint8"
                }
            ],
            "stateMutability": "view",
            "type": "function"
        },
        {
            "inputs": [
                {
                    "internalType": "address",
                    "name": "signatory",
                    "type": "address"
                }
            ],
            "name": "giveRightToSign",
            "outputs": [],
            "stateMutability": "nonpayable",
            "type": "function"
        },
        {
            "inputs": [],
            "name": "holder",
            "outputs": [
                {
                    "internalType": "address",
                    "name": "",
                    "type": "address"
                }
            ],
            "stateMutability": "view",
            "type": "function"
        },
        {
            "inputs": [],
            "name": "isApprovedByAbsoluteMajority",
            "outputs": [
                {
                    "internalType": "bool",
                    "name": "approved",
                    "type": "bool"
                }
            ],
            "stateMutability": "view",
            "type": "function"
        },
        {
            "inputs": [],
            "name": "isApprovedByRelativeMajority",
            "outputs": [
                {
                    "internalType": "bool",
                    "name": "approved",
                    "type": "bool"
                }
            ],
            "stateMutability": "view",
            "type": "function"
        },
        {
            "inputs": [],
            "name": "isDocumentApproved",
            "outputs": [
                {
                    "internalType": "bool",
                    "name": "approved",
                    "type": "bool"
                }
            ],
            "stateMutability": "view",
            "type": "function"
        },
        {
            "inputs": [],
            "name": "refuse",
            "outputs": [],
            "stateMutability": "nonpayable",
            "type": "function"
        },
        {
            "inputs": [],
            "name": "sign",
            "outputs": [],
            "stateMutability": "nonpayable",
            "type": "function"
        },
        {
            "inputs": [
                {
                    "internalType": "address",
                    "name": "",
                    "type": "address"
                }
            ],
            "name": "signatories",
            "outputs": [
                {
                    "internalType": "bool",
                    "name": "sign",
                    "type": "bool"
                },
                {
                    "internalType": "bool",
                    "name": "approve",
                    "type": "bool"
                },
                {
                    "internalType": "bool",
                    "name": "rightToSign",
                    "type": "bool"
                }
            ],
            "stateMutability": "view",
            "type": "function"
        },
        {
            "inputs": [],
            "name": "startApproval",
            "outputs": [
                {
                    "internalType": "bool",
                    "name": "",
                    "type": "bool"
                }
            ],
            "stateMutability": "nonpayable",
            "type": "function"
        },
        {
            "inputs": [],
            "name": "startSetup",
            "outputs": [
                {
                    "internalType": "bool",
                    "name": "",
                    "type": "bool"
                }
            ],
            "stateMutability": "nonpayable",
            "type": "function"
        }
    ],
    "bytecode": "60806040526005805460ff1916905534801561001a57600080fd5b506040516109cb3803806109cb8339818101604052602081101561003d57600080fd5b505160058054610100338102610100600160a81b0319909216919091179182905590046001600160a01b03166000908152600660205260408120805462ff000019166201000017905560049190915560018055805561092a806100a16000396000f3fe608060405234801561001057600080fd5b50600436106101005760003560e01c80637932f37211610097578063b5b360d611610066578063b5b360d6146101f1578063cf504e0a14610217578063e534155d1461021f578063e926d9c01461024357610100565b80637932f3721461017f5780637935f097146101c75780637a64556e146101e15780639b2219cd146101e957610100565b80635b73f435116100d35780635b73f4351461015f5780636200cb491461016757806362c69b801461016f57806363dd2cca1461017757610100565b8063135153b1146101055780632ca15122146101215780634e69d5601461012b57806352a9159414610157575b600080fd5b61010d61024b565b604080519115158252519081900360200190f35b6101296102a7565b005b6101336103d4565b6040518082600381111561014357fe5b60ff16815260200191505060405180910390f35b61010d6103de565b61010d610449565b61010d6104a6565b610129610534565b61010d61065d565b6101a56004803603602081101561019557600080fd5b50356001600160a01b03166106db565b6040805193151584529115156020840152151582820152519081900360600190f35b6101cf610703565b60408051918252519081900360200190f35b6101cf610711565b6101cf610717565b6101296004803603602081101561020757600080fd5b50356001600160a01b031661071d565b61010d610809565b61022761081f565b604080516001600160a01b039092168252519081900360200190f35b61010d610833565b6000600360055460ff16600381111561026057fe5b1461029c5760405162461bcd60e51b81526004018080602001828103825260218152602001806108b16021913960400191505060405180910390fd5b506002546000541190565b336000908152600660205260409020600260055460ff1660038111156102c957fe5b1461031b576040805162461bcd60e51b815260206004820181905260248201527f54686520617070726f76616c206973206e6f742073746172746564207965742e604482015290519081900360640190fd5b805460ff1615610362576040805162461bcd60e51b815260206004820152600d60248201526c20b63932b0b23c9039b4b3b71760991b604482015290519081900360640190fd5b805462010000900460ff166103b1576040805162461bcd60e51b815260206004820152601060248201526f2737903934b3ba103a379039b4b3b71760811b604482015290519081900360640190fd5b8054610100600160ff19909216821761ff00191617909155600080549091019055565b60055460ff165b90565b6000600360055460ff1660038111156103f357fe5b1461042f5760405162461bcd60e51b81526004018080602001828103825260218152602001806108b16021913960400191505060405180910390fd5b60026001548161043b57fe5b046001016000541015905090565b6000600360055460ff16600381111561045e57fe5b1461049a5760405162461bcd60e51b81526004018080602001828103825260218152602001806108b16021913960400191505060405180910390fd5b50600454600054101590565b60055460009061010090046001600160a01b031633146104f75760405162461bcd60e51b81526004018080602001828103825260238152602001806108d26023913960400191505060405180910390fd5b600160055460ff16600381111561050a57fe5b141561052e57600580546002919060ff19166001835b0217905550600190506103db565b50600090565b336000908152600660205260409020600260055460ff16600381111561055657fe5b146105a8576040805162461bcd60e51b815260206004820181905260248201527f54686520617070726f76616c206973206e6f742073746172746564207965742e604482015290519081900360640190fd5b805460ff16156105ef576040805162461bcd60e51b815260206004820152600d60248201526c20b63932b0b23c9039b4b3b71760991b604482015290519081900360640190fd5b805462010000900460ff1661063e576040805162461bcd60e51b815260206004820152601060248201526f2737903934b3ba103a379039b4b3b71760811b604482015290519081900360640190fd5b8054600160ff19909116811761ff001916909155600280549091019055565b60055460009061010090046001600160a01b031633146106ae5760405162461bcd60e51b81526004018080602001828103825260238152602001806108d26023913960400191505060405180910390fd5b600260055460ff1660038111156106c157fe5b141561052e57600580546003919060ff1916600183610520565b60066020526000908152604090205460ff808216916101008104821691620100009091041683565b600254600054600154030390565b60005490565b60025490565b60055461010090046001600160a01b0316331461076b5760405162461bcd60e51b81526004018080602001828103825260238152602001806108d26023913960400191505060405180910390fd5b6001600160a01b03811660009081526006602052604090205460ff16156107d9576040805162461bcd60e51b815260206004820152601b60248201527f546865207369676e61746f727920616c7265616479207369676e2e0000000000604482015290519081900360640190fd5b6001600160a01b03166000908152600660205260409020805462ff00001916620100001790556001805481019055565b3360009081526006602052604090205460ff1690565b60055461010090046001600160a01b031681565b60055460009061010090046001600160a01b031633146108845760405162461bcd60e51b81526004018080602001828103825260238152602001806108d26023913960400191505060405180910390fd5b600060055460ff16600381111561089757fe5b141561052e57600580546001919060ff1916828061052056fe54686520617070726f76616c206973206e6f742066696e6973686564207965742e4f6e6c7920686f6c6465722063616e206769766520726967687420746f207369676e2ea2646970667358221220603e880bf6ea663899ea32699513f0fe6614e1b976a22cd3da904614d617233164736f6c63430006090033",
    "sourcePath": "c:/xampp/htdocs/blockchain/document/document.sol",
    "compiler": {
        "name": "solc",
        "version": "0.6.9+commit.3e3065ac"
    },
    "functionHashes": {
        "endApproval()": "63dd2cca",
        "getNumOfAbstained()": "7935f097",
        "getNumOfOpposed()": "9b2219cd",
        "getNumOfSignatures()": "7a64556e",
        "getSign()": "cf504e0a",
        "getStatus()": "4e69d560",
        "giveRightToSign(address)": "b5b360d6",
        "holder()": "e534155d",
        "isApprovedByAbsoluteMajority()": "52a91594",
        "isApprovedByRelativeMajority()": "135153b1",
        "isDocumentApproved()": "5b73f435",
        "refuse()": "62c69b80",
        "sign()": "2ca15122",
        "signatories(address)": "7932f372",
        "startApproval()": "6200cb49",
        "startSetup()": "e926d9c0"
    },
    "gasEstimates": {
        "creation": {
            "codeDepositCost": "469200",
            "executionCost": "infinite",
            "totalCost": "infinite"
        },
        "external": {
            "endApproval()": "infinite",
            "getNumOfAbstained()": "2655",
            "getNumOfOpposed()": "1087",
            "getNumOfSignatures()": "1065",
            "getSign()": "1122",
            "getStatus()": "1112",
            "giveRightToSign(address)": "infinite",
            "holder()": "1114",
            "isApprovedByAbsoluteMajority()": "infinite",
            "isApprovedByRelativeMajority()": "infinite",
            "isDocumentApproved()": "infinite",
            "refuse()": "44457",
            "sign()": "44442",
            "signatories(address)": "1250",
            "startApproval()": "infinite",
            "startSetup()": "infinite"
        }
    }
}