{
    "contractName": "Document",
    "abi": [
        {
            "inputs": [
                {
                    "internalType": "uint256",
                    "name": "signatures",
                    "type": "uint256"
                },
                {
                    "internalType": "string",
                    "name": "docHash",
                    "type": "string"
                }
            ],
            "stateMutability": "nonpayable",
            "type": "constructor"
        },
        {
            "inputs": [],
            "name": "endApproval",
            "outputs": [
                {
                    "internalType": "bool",
                    "name": "",
                    "type": "bool"
                }
            ],
            "stateMutability": "nonpayable",
            "type": "function"
        },
        {
            "inputs": [],
            "name": "getDocumentHash",
            "outputs": [
                {
                    "internalType": "string",
                    "name": "",
                    "type": "string"
                }
            ],
            "stateMutability": "view",
            "type": "function"
        },
        {
            "inputs": [],
            "name": "getNumOfAbstained",
            "outputs": [
                {
                    "internalType": "uint256",
                    "name": "",
                    "type": "uint256"
                }
            ],
            "stateMutability": "view",
            "type": "function"
        },
        {
            "inputs": [],
            "name": "getNumOfOpposed",
            "outputs": [
                {
                    "internalType": "uint256",
                    "name": "",
                    "type": "uint256"
                }
            ],
            "stateMutability": "view",
            "type": "function"
        },
        {
            "inputs": [],
            "name": "getNumOfSignatures",
            "outputs": [
                {
                    "internalType": "uint256",
                    "name": "",
                    "type": "uint256"
                }
            ],
            "stateMutability": "view",
            "type": "function"
        },
        {
            "inputs": [],
            "name": "getSign",
            "outputs": [
                {
                    "internalType": "bool",
                    "name": "sign",
                    "type": "bool"
                }
            ],
            "stateMutability": "view",
            "type": "function"
        },
        {
            "inputs": [],
            "name": "getStatus",
            "outputs": [
                {
                    "internalType": "enum Document.Status",
                    "name": "",
                    "type": "uint8"
                }
            ],
            "stateMutability": "view",
            "type": "function"
        },
        {
            "inputs": [],
            "name": "getUrl",
            "outputs": [
                {
                    "internalType": "string",
                    "name": "",
                    "type": "string"
                }
            ],
            "stateMutability": "view",
            "type": "function"
        },
        {
            "inputs": [
                {
                    "internalType": "address",
                    "name": "signatory",
                    "type": "address"
                }
            ],
            "name": "giveRightToSign",
            "outputs": [],
            "stateMutability": "nonpayable",
            "type": "function"
        },
        {
            "inputs": [],
            "name": "holder",
            "outputs": [
                {
                    "internalType": "address",
                    "name": "",
                    "type": "address"
                }
            ],
            "stateMutability": "view",
            "type": "function"
        },
        {
            "inputs": [],
            "name": "isApprovedByAbsoluteMajority",
            "outputs": [
                {
                    "internalType": "bool",
                    "name": "approved",
                    "type": "bool"
                }
            ],
            "stateMutability": "view",
            "type": "function"
        },
        {
            "inputs": [],
            "name": "isApprovedByRelativeMajority",
            "outputs": [
                {
                    "internalType": "bool",
                    "name": "approved",
                    "type": "bool"
                }
            ],
            "stateMutability": "view",
            "type": "function"
        },
        {
            "inputs": [],
            "name": "isDocumentApproved",
            "outputs": [
                {
                    "internalType": "bool",
                    "name": "approved",
                    "type": "bool"
                }
            ],
            "stateMutability": "view",
            "type": "function"
        },
        {
            "inputs": [],
            "name": "refuse",
            "outputs": [],
            "stateMutability": "nonpayable",
            "type": "function"
        },
        {
            "inputs": [],
            "name": "sign",
            "outputs": [],
            "stateMutability": "nonpayable",
            "type": "function"
        },
        {
            "inputs": [
                {
                    "internalType": "address",
                    "name": "",
                    "type": "address"
                }
            ],
            "name": "signatories",
            "outputs": [
                {
                    "internalType": "bool",
                    "name": "sign",
                    "type": "bool"
                },
                {
                    "internalType": "bool",
                    "name": "approve",
                    "type": "bool"
                },
                {
                    "internalType": "bool",
                    "name": "rightToSign",
                    "type": "bool"
                }
            ],
            "stateMutability": "view",
            "type": "function"
        },
        {
            "inputs": [],
            "name": "startApproval",
            "outputs": [
                {
                    "internalType": "bool",
                    "name": "",
                    "type": "bool"
                }
            ],
            "stateMutability": "nonpayable",
            "type": "function"
        },
        {
            "inputs": [],
            "name": "startSetup",
            "outputs": [
                {
                    "internalType": "bool",
                    "name": "",
                    "type": "bool"
                }
            ],
            "stateMutability": "nonpayable",
            "type": "function"
        }
    ],
    "bytecode": "60806040526005805460ff1916905534801561001a57600080fd5b50604051610c26380380610c268339818101604052604081101561003d57600080fd5b81516020830180516040519294929383019291908464010000000082111561006457600080fd5b90830190602082018581111561007957600080fd5b825164010000000081118282018810171561009357600080fd5b82525081516020918201929091019080838360005b838110156100c05781810151838201526020016100a8565b50505050905090810190601f1680156100ed5780820380516001836020036101000a031916815260200191505b50604052505060058054610100600160a81b0319163361010002179055506004829055600060018190558055805161012c906003906020840190610134565b5050506101c7565b828054600181600116156101000203166002900490600052602060002090601f016020900481019282601f1061017557805160ff19168380011785556101a2565b828001600101855582156101a2579182015b828111156101a2578251825591602001919060010190610187565b506101ae9291506101b2565b5090565b5b808211156101ae57600081556001016101b3565b610a50806101d66000396000f3fe608060405234801561001057600080fd5b50600436106101165760003560e01c80637932f372116100a2578063b5b360d611610071578063b5b360d614610281578063cf504e0a146102a7578063d6bd872714610137578063e534155d146102af578063e926d9c0146102d357610116565b80637932f3721461020f5780637935f097146102575780637a64556e146102715780639b2219cd1461027957610116565b806352a91594116100e957806352a91594146101e75780635b73f435146101ef5780636200cb49146101f757806362c69b80146101ff57806363dd2cca1461020757610116565b8063135153b11461011b5780632aa85c75146101375780632ca15122146101b45780634e69d560146101be575b600080fd5b6101236102db565b604080519115158252519081900360200190f35b61013f610337565b6040805160208082528351818301528351919283929083019185019080838360005b83811015610179578181015183820152602001610161565b50505050905090810190601f1680156101a65780820380516001836020036101000a031916815260200191505b509250505060405180910390f35b6101bc6103ce565b005b6101c66104fb565b604051808260038111156101d657fe5b815260200191505060405180910390f35b610123610504565b61012361056f565b6101236105cc565b6101bc61065a565b610123610783565b6102356004803603602081101561022557600080fd5b50356001600160a01b0316610801565b6040805193151584529115156020840152151582820152519081900360600190f35b61025f610829565b60408051918252519081900360200190f35b61025f610837565b61025f61083d565b6101bc6004803603602081101561029757600080fd5b50356001600160a01b0316610843565b61012361092f565b6102b7610945565b604080516001600160a01b039092168252519081900360200190f35b610123610959565b6000600360055460ff1660038111156102f057fe5b1461032c5760405162461bcd60e51b81526004018080602001828103825260218152602001806109d76021913960400191505060405180910390fd5b506002546000541190565b60038054604080516020601f60026000196101006001881615020190951694909404938401819004810282018101909252828152606093909290918301828280156103c35780601f10610398576101008083540402835291602001916103c3565b820191906000526020600020905b8154815290600101906020018083116103a657829003601f168201915b505050505090505b90565b336000908152600660205260409020600260055460ff1660038111156103f057fe5b14610442576040805162461bcd60e51b815260206004820181905260248201527f54686520617070726f76616c206973206e6f742073746172746564207965742e604482015290519081900360640190fd5b805460ff1615610489576040805162461bcd60e51b815260206004820152600d60248201526c20b63932b0b23c9039b4b3b71760991b604482015290519081900360640190fd5b805462010000900460ff166104d8576040805162461bcd60e51b815260206004820152601060248201526f2737903934b3ba103a379039b4b3b71760811b604482015290519081900360640190fd5b8054610100600160ff19909216821761ff00191617909155600080549091019055565b60055460ff1690565b6000600360055460ff16600381111561051957fe5b146105555760405162461bcd60e51b81526004018080602001828103825260218152602001806109d76021913960400191505060405180910390fd5b60026001548161056157fe5b046001016000541015905090565b6000600360055460ff16600381111561058457fe5b146105c05760405162461bcd60e51b81526004018080602001828103825260218152602001806109d76021913960400191505060405180910390fd5b50600454600054101590565b60055460009061010090046001600160a01b0316331461061d5760405162461bcd60e51b81526004018080602001828103825260238152602001806109f86023913960400191505060405180910390fd5b600160055460ff16600381111561063057fe5b141561065457600580546002919060ff19166001835b0217905550600190506103cb565b50600090565b336000908152600660205260409020600260055460ff16600381111561067c57fe5b146106ce576040805162461bcd60e51b815260206004820181905260248201527f54686520617070726f76616c206973206e6f742073746172746564207965742e604482015290519081900360640190fd5b805460ff1615610715576040805162461bcd60e51b815260206004820152600d60248201526c20b63932b0b23c9039b4b3b71760991b604482015290519081900360640190fd5b805462010000900460ff16610764576040805162461bcd60e51b815260206004820152601060248201526f2737903934b3ba103a379039b4b3b71760811b604482015290519081900360640190fd5b8054600160ff19909116811761ff001916909155600280549091019055565b60055460009061010090046001600160a01b031633146107d45760405162461bcd60e51b81526004018080602001828103825260238152602001806109f86023913960400191505060405180910390fd5b600260055460ff1660038111156107e757fe5b141561065457600580546003919060ff1916600183610646565b60066020526000908152604090205460ff808216916101008104821691620100009091041683565b600254600054600154030390565b60005490565b60025490565b60055461010090046001600160a01b031633146108915760405162461bcd60e51b81526004018080602001828103825260238152602001806109f86023913960400191505060405180910390fd5b6001600160a01b03811660009081526006602052604090205460ff16156108ff576040805162461bcd60e51b815260206004820152601b60248201527f546865207369676e61746f727920616c7265616479207369676e2e0000000000604482015290519081900360640190fd5b6001600160a01b03166000908152600660205260409020805462ff00001916620100001790556001805481019055565b3360009081526006602052604090205460ff1690565b60055461010090046001600160a01b031681565b60055460009061010090046001600160a01b031633146109aa5760405162461bcd60e51b81526004018080602001828103825260238152602001806109f86023913960400191505060405180910390fd5b600060055460ff1660038111156109bd57fe5b141561065457600580546001919060ff1916828061064656fe54686520617070726f76616c206973206e6f742066696e6973686564207965742e4f6e6c7920686f6c6465722063616e206769766520726967687420746f207369676e2ea2646970667358221220579f9650d06d64d3d46decc78e87af6ec009f562869ed12c92f039ad31e4a11764736f6c63430007000033",
    "sourcePath": "c:/xampp/htdocs/blockchain/document/document.sol",
    "compiler": {
        "name": "solc",
        "version": "0.7.0+commit.9e61f92b"
    },
    "functionHashes": {
        "endApproval()": "63dd2cca",
        "getDocumentHash()": "2aa85c75",
        "getNumOfAbstained()": "7935f097",
        "getNumOfOpposed()": "9b2219cd",
        "getNumOfSignatures()": "7a64556e",
        "getSign()": "cf504e0a",
        "getStatus()": "4e69d560",
        "getUrl()": "d6bd8727",
        "giveRightToSign(address)": "b5b360d6",
        "holder()": "e534155d",
        "isApprovedByAbsoluteMajority()": "52a91594",
        "isApprovedByRelativeMajority()": "135153b1",
        "isDocumentApproved()": "5b73f435",
        "refuse()": "62c69b80",
        "sign()": "2ca15122",
        "signatories(address)": "7932f372",
        "startApproval()": "6200cb49",
        "startSetup()": "e926d9c0"
    },
    "gasEstimates": {
        "creation": {
            "codeDepositCost": "528000",
            "executionCost": "infinite",
            "totalCost": "infinite"
        },
        "external": {
            "endApproval()": "infinite",
            "getDocumentHash()": "infinite",
            "getNumOfAbstained()": "2655",
            "getNumOfOpposed()": "1087",
            "getNumOfSignatures()": "1065",
            "getSign()": "1122",
            "getStatus()": "1127",
            "getUrl()": "infinite",
            "giveRightToSign(address)": "infinite",
            "holder()": "1136",
            "isApprovedByAbsoluteMajority()": "infinite",
            "isApprovedByRelativeMajority()": "infinite",
            "isDocumentApproved()": "infinite",
            "refuse()": "44479",
            "sign()": "44464",
            "signatories(address)": "1250",
            "startApproval()": "infinite",
            "startSetup()": "infinite"
        }
    }
}