{
    "contractName": "Document",
    "abi": [
        {
            "inputs": [
                {
                    "internalType": "uint256",
                    "name": "signatures",
                    "type": "uint256"
                },
                {
                    "internalType": "string",
                    "name": "docHash",
                    "type": "string"
                }
            ],
            "stateMutability": "nonpayable",
            "type": "constructor"
        },
        {
            "inputs": [],
            "name": "abstain",
            "outputs": [],
            "stateMutability": "nonpayable",
            "type": "function"
        },
        {
            "inputs": [],
            "name": "endApproval",
            "outputs": [
                {
                    "internalType": "bool",
                    "name": "",
                    "type": "bool"
                }
            ],
            "stateMutability": "nonpayable",
            "type": "function"
        },
        {
            "inputs": [],
            "name": "getDocumentHash",
            "outputs": [
                {
                    "internalType": "string",
                    "name": "",
                    "type": "string"
                }
            ],
            "stateMutability": "view",
            "type": "function"
        },
        {
            "inputs": [],
            "name": "getNumOfAbstained",
            "outputs": [
                {
                    "internalType": "uint256",
                    "name": "",
                    "type": "uint256"
                }
            ],
            "stateMutability": "view",
            "type": "function"
        },
        {
            "inputs": [],
            "name": "getNumOfOpposed",
            "outputs": [
                {
                    "internalType": "uint256",
                    "name": "",
                    "type": "uint256"
                }
            ],
            "stateMutability": "view",
            "type": "function"
        },
        {
            "inputs": [],
            "name": "getNumOfSignatures",
            "outputs": [
                {
                    "internalType": "uint256",
                    "name": "",
                    "type": "uint256"
                }
            ],
            "stateMutability": "view",
            "type": "function"
        },
        {
            "inputs": [],
            "name": "getNumOfUndecided",
            "outputs": [
                {
                    "internalType": "uint256",
                    "name": "",
                    "type": "uint256"
                }
            ],
            "stateMutability": "view",
            "type": "function"
        },
        {
            "inputs": [],
            "name": "getSign",
            "outputs": [
                {
                    "internalType": "bool",
                    "name": "sign",
                    "type": "bool"
                }
            ],
            "stateMutability": "view",
            "type": "function"
        },
        {
            "inputs": [],
            "name": "getStatus",
            "outputs": [
                {
                    "internalType": "enum Document.Status",
                    "name": "",
                    "type": "uint8"
                }
            ],
            "stateMutability": "view",
            "type": "function"
        },
        {
            "inputs": [],
            "name": "getUrl",
            "outputs": [
                {
                    "internalType": "string",
                    "name": "",
                    "type": "string"
                }
            ],
            "stateMutability": "view",
            "type": "function"
        },
        {
            "inputs": [
                {
                    "internalType": "address",
                    "name": "signatory",
                    "type": "address"
                }
            ],
            "name": "giveRightToSign",
            "outputs": [],
            "stateMutability": "nonpayable",
            "type": "function"
        },
        {
            "inputs": [],
            "name": "holder",
            "outputs": [
                {
                    "internalType": "address",
                    "name": "",
                    "type": "address"
                }
            ],
            "stateMutability": "view",
            "type": "function"
        },
        {
            "inputs": [],
            "name": "isApprovedByAbsoluteMajority",
            "outputs": [
                {
                    "internalType": "bool",
                    "name": "approved",
                    "type": "bool"
                }
            ],
            "stateMutability": "view",
            "type": "function"
        },
        {
            "inputs": [],
            "name": "isApprovedByRelativeMajority",
            "outputs": [
                {
                    "internalType": "bool",
                    "name": "approved",
                    "type": "bool"
                }
            ],
            "stateMutability": "view",
            "type": "function"
        },
        {
            "inputs": [],
            "name": "isDocumentApproved",
            "outputs": [
                {
                    "internalType": "bool",
                    "name": "approved",
                    "type": "bool"
                }
            ],
            "stateMutability": "view",
            "type": "function"
        },
        {
            "inputs": [],
            "name": "refuse",
            "outputs": [],
            "stateMutability": "nonpayable",
            "type": "function"
        },
        {
            "inputs": [],
            "name": "sign",
            "outputs": [],
            "stateMutability": "nonpayable",
            "type": "function"
        },
        {
            "inputs": [
                {
                    "internalType": "address",
                    "name": "",
                    "type": "address"
                }
            ],
            "name": "signatories",
            "outputs": [
                {
                    "internalType": "bool",
                    "name": "sign",
                    "type": "bool"
                },
                {
                    "internalType": "bool",
                    "name": "approve",
                    "type": "bool"
                },
                {
                    "internalType": "bool",
                    "name": "rightToSign",
                    "type": "bool"
                }
            ],
            "stateMutability": "view",
            "type": "function"
        },
        {
            "inputs": [],
            "name": "startApproval",
            "outputs": [
                {
                    "internalType": "bool",
                    "name": "",
                    "type": "bool"
                }
            ],
            "stateMutability": "nonpayable",
            "type": "function"
        },
        {
            "inputs": [],
            "name": "startSetup",
            "outputs": [
                {
                    "internalType": "bool",
                    "name": "",
                    "type": "bool"
                }
            ],
            "stateMutability": "nonpayable",
            "type": "function"
        }
    ],
    "bytecode": "60806040526006805460ff1916905534801561001a57600080fd5b50604051610d7f380380610d7f8339818101604052604081101561003d57600080fd5b81516020830180516040519294929383019291908464010000000082111561006457600080fd5b90830190602082018581111561007957600080fd5b825164010000000081118282018810171561009357600080fd5b82525081516020918201929091019080838360005b838110156100c05781810151838201526020016100a8565b50505050905090810190601f1680156100ed5780820380516001836020036101000a031916815260200191505b50604052505060068054610100600160a81b0319163361010002179055506005829055600060018190558055805161012c906004906020840190610134565b5050506101c7565b828054600181600116156101000203166002900490600052602060002090601f016020900481019282601f1061017557805160ff19168380011785556101a2565b828001600101855582156101a2579182015b828111156101a2578251825591602001919060010190610187565b506101ae9291506101b2565b5090565b5b808211156101ae57600081556001016101b3565b610ba9806101d66000396000f3fe608060405234801561001057600080fd5b506004361061012c5760003560e01c80637932f372116100ad578063bee9f0b811610071578063bee9f0b8146102c5578063cf504e0a146102cd578063d6bd87271461014d578063e534155d146102d5578063e926d9c0146102f95761012c565b80637932f3721461022d5780637935f097146102755780637a64556e1461028f5780639b2219cd14610297578063b5b360d61461029f5761012c565b80635b73f435116100f45780635b73f435146102055780635e98e4c71461020d5780636200cb491461021557806362c69b801461021d57806363dd2cca146102255761012c565b8063135153b1146101315780632aa85c751461014d5780632ca15122146101ca5780634e69d560146101d457806352a91594146101fd575b600080fd5b610139610301565b604080519115158252519081900360200190f35b61015561035d565b6040805160208082528351818301528351919283929083019185019080838360005b8381101561018f578181015183820152602001610177565b50505050905090810190601f1680156101bc5780820380516001836020036101000a031916815260200191505b509250505060405180910390f35b6101d26103f4565b005b6101dc610521565b604051808260038111156101ec57fe5b815260200191505060405180910390f35b61013961052a565b610139610595565b6101d26105f2565b61013961071b565b6101d26107a9565b6101396108d2565b6102536004803603602081101561024357600080fd5b50356001600160a01b0316610950565b6040805193151584529115156020840152151582820152519081900360600190f35b61027d610978565b60408051918252519081900360200190f35b61027d61097e565b61027d610984565b6101d2600480360360208110156102b557600080fd5b50356001600160a01b031661098a565b61027d610a76565b610139610a88565b6102dd610a9e565b604080516001600160a01b039092168252519081900360200190f35b610139610ab2565b6000600360065460ff16600381111561031657fe5b146103525760405162461bcd60e51b8152600401808060200182810382526021815260200180610b306021913960400191505060405180910390fd5b506002546000541190565b60048054604080516020601f60026000196101006001881615020190951694909404938401819004810282018101909252828152606093909290918301828280156103e95780601f106103be576101008083540402835291602001916103e9565b820191906000526020600020905b8154815290600101906020018083116103cc57829003601f168201915b505050505090505b90565b336000908152600760205260409020600260065460ff16600381111561041657fe5b14610468576040805162461bcd60e51b815260206004820181905260248201527f54686520617070726f76616c206973206e6f742073746172746564207965742e604482015290519081900360640190fd5b805460ff16156104af576040805162461bcd60e51b815260206004820152600d60248201526c20b63932b0b23c9039b4b3b71760991b604482015290519081900360640190fd5b805462010000900460ff166104fe576040805162461bcd60e51b815260206004820152601060248201526f2737903934b3ba103a379039b4b3b71760811b604482015290519081900360640190fd5b8054610100600160ff19909216821761ff00191617909155600080549091019055565b60065460ff1690565b6000600360065460ff16600381111561053f57fe5b1461057b5760405162461bcd60e51b8152600401808060200182810382526021815260200180610b306021913960400191505060405180910390fd5b60026001548161058757fe5b046001016000541015905090565b6000600360065460ff1660038111156105aa57fe5b146105e65760405162461bcd60e51b8152600401808060200182810382526021815260200180610b306021913960400191505060405180910390fd5b50600554600054101590565b336000908152600760205260409020600260065460ff16600381111561061457fe5b14610666576040805162461bcd60e51b815260206004820181905260248201527f54686520617070726f76616c206973206e6f742073746172746564207965742e604482015290519081900360640190fd5b805460ff16156106ad576040805162461bcd60e51b815260206004820152600d60248201526c20b63932b0b23c9039b4b3b71760991b604482015290519081900360640190fd5b805462010000900460ff166106fc576040805162461bcd60e51b815260206004820152601060248201526f2737903934b3ba103a379039b4b3b71760811b604482015290519081900360640190fd5b8054600160ff19909116811761ff001916909155600380549091019055565b60065460009061010090046001600160a01b0316331461076c5760405162461bcd60e51b8152600401808060200182810382526023815260200180610b516023913960400191505060405180910390fd5b600160065460ff16600381111561077f57fe5b14156107a357600680546002919060ff19166001835b0217905550600190506103f1565b50600090565b336000908152600760205260409020600260065460ff1660038111156107cb57fe5b1461081d576040805162461bcd60e51b815260206004820181905260248201527f54686520617070726f76616c206973206e6f742073746172746564207965742e604482015290519081900360640190fd5b805460ff1615610864576040805162461bcd60e51b815260206004820152600d60248201526c20b63932b0b23c9039b4b3b71760991b604482015290519081900360640190fd5b805462010000900460ff166108b3576040805162461bcd60e51b815260206004820152601060248201526f2737903934b3ba103a379039b4b3b71760811b604482015290519081900360640190fd5b8054600160ff19909116811761ff001916909155600280549091019055565b60065460009061010090046001600160a01b031633146109235760405162461bcd60e51b8152600401808060200182810382526023815260200180610b516023913960400191505060405180910390fd5b600260065460ff16600381111561093657fe5b14156107a357600680546003919060ff1916600183610795565b60076020526000908152604090205460ff808216916101008104821691620100009091041683565b60035490565b60005490565b60025490565b60065461010090046001600160a01b031633146109d85760405162461bcd60e51b8152600401808060200182810382526023815260200180610b516023913960400191505060405180910390fd5b6001600160a01b03811660009081526007602052604090205460ff1615610a46576040805162461bcd60e51b815260206004820152601b60248201527f546865207369676e61746f727920616c7265616479207369676e2e0000000000604482015290519081900360640190fd5b6001600160a01b03166000908152600760205260409020805462ff00001916620100001790556001805481019055565b60035460025460005460015403030390565b3360009081526007602052604090205460ff1690565b60065461010090046001600160a01b031681565b60065460009061010090046001600160a01b03163314610b035760405162461bcd60e51b8152600401808060200182810382526023815260200180610b516023913960400191505060405180910390fd5b600060065460ff166003811115610b1657fe5b14156107a357600680546001919060ff1916828061079556fe54686520617070726f76616c206973206e6f742066696e6973686564207965742e4f6e6c7920686f6c6465722063616e206769766520726967687420746f207369676e2ea2646970667358221220b4a167a11f1674e920a4d7ffd4212d26b29ae03576720b7dce0dc059477c63af64736f6c63430007000033",
    "sourcePath": "c:/xampp/htdocs/blockchain/document/document.sol",
    "compiler": {
        "name": "solc",
        "version": "0.7.0+commit.9e61f92b"
    },
    "functionHashes": {
        "abstain()": "5e98e4c7",
        "endApproval()": "63dd2cca",
        "getDocumentHash()": "2aa85c75",
        "getNumOfAbstained()": "7935f097",
        "getNumOfOpposed()": "9b2219cd",
        "getNumOfSignatures()": "7a64556e",
        "getNumOfUndecided()": "bee9f0b8",
        "getSign()": "cf504e0a",
        "getStatus()": "4e69d560",
        "getUrl()": "d6bd8727",
        "giveRightToSign(address)": "b5b360d6",
        "holder()": "e534155d",
        "isApprovedByAbsoluteMajority()": "52a91594",
        "isApprovedByRelativeMajority()": "135153b1",
        "isDocumentApproved()": "5b73f435",
        "refuse()": "62c69b80",
        "sign()": "2ca15122",
        "signatories(address)": "7932f372",
        "startApproval()": "6200cb49",
        "startSetup()": "e926d9c0"
    },
    "gasEstimates": {
        "creation": {
            "codeDepositCost": "597000",
            "executionCost": "infinite",
            "totalCost": "infinite"
        },
        "external": {
            "abstain()": "44435",
            "endApproval()": "infinite",
            "getDocumentHash()": "infinite",
            "getNumOfAbstained()": "1043",
            "getNumOfOpposed()": "1087",
            "getNumOfSignatures()": "1065",
            "getNumOfUndecided()": "3438",
            "getSign()": "1122",
            "getStatus()": "1127",
            "getUrl()": "infinite",
            "giveRightToSign(address)": "infinite",
            "holder()": "1136",
            "isApprovedByAbsoluteMajority()": "infinite",
            "isApprovedByRelativeMajority()": "infinite",
            "isDocumentApproved()": "infinite",
            "refuse()": "44479",
            "sign()": "44464",
            "signatories(address)": "1250",
            "startApproval()": "infinite",
            "startSetup()": "infinite"
        }
    }
}